:020000040800F2
:10000000F8AF0120C10100088BE300084FC30008CE
:1000100021E30008D91D00087F59010800000000F5
:10002000000000000000000000000000F3010008D4
:10003000632B000800000000790A00083531010830
:10004000FB010008FB010008FB010008FB010008A0
:10005000FB010008FB010008FB010008FB01000890
:10006000FB010008FB010008FB01000871260008E5
:100070008126000891260008A1260008B126000864
:10008000FB010008FB010008FB010008FB01000860
:10009000FB010008FB010008FB010008FB01000850
:1000A000FB010008FB010008FB010008FB01000840
:1000B000FB010008FB010008FB010008FB01000830
:1000C000FB010008FB010008FB010008FB01000820
:1000D000FB010008B53C0108FB010008FB0100081A
:1000E000FB010008FB010008FB010008FB01000800
:1000F000FB010008FB010008FB010008C126000805
:10010000FB010008FB010008FB010008FB010008DF
:100110003D350108AD350108FB010008FB01000871
:10012000FB010008092A0008192A0008FB01000841
:10013000292A0008FB010008FB010008FB01000858
:10014000FB010008FB010008FB010008FB0100089F
:10015000FB010008392A0008492A0008253D01084A
:10016000FB010008FB010008E11E0108D11E010887
:10017000FB010008F11E0108FB010008000000005F
:10018000FB010008FB0100081D360108FB01000807
:10019000FB010008FB010008FB010008FB0100084F
:1001A0001DDC0008FB010008FB010008DFF80CD093
:1001B00000F0C2FB00480047E5EA0108F8AF012063
:1001C0000E488047DFF83800016841F47001016093
:1001D000BFF34F8FDFF82C00016821F04041016030
:1001E000BFF36F8F08480047FEE7FEE7FEE7FEE734
:1001F000FEE7FEE7FEE7FEE7FEE7FEE71132010855
:1002000088ED00E034EF00E0AD01000872B6704701
:1002100062B67047EFF3108072B6704780F31088B3
:10022000704730BF704720BF7047B0FA80F070470A
:1002300090FAA0F0B0FA80F0704790FAA0F0704702
:100240002DE9F05F0546002092469B46884606460B
:10025000814640241BE0284641464746224600F09E
:1002600020F853465A46C01A914110D311461846F9
:10027000224600F093FA2D1A67EB01084F462246FA
:100280000120002100F08AFA17EB00094E41201EE0
:10029000A4F10104DFDC484631462A464346BDE866
:1002A000F09F202A04DB203A21FA02F00021704757
:1002B00021FA02F3D040C2F12002914008431946CE
:1002C000704710B5441A0346944209D28418114469
:1002D00003E011F8013D04F8013D521EF9D210BDB2
:1002E00040EA0104A40703D009E010C9121F10C39B
:1002F000042AFAD203E011F8014B03F8014B521E15
:10030000F9D210BDD2B201E000F8012B491EFBD298
:1003100070470022F6E710B513460A460446194610
:10032000FFF7F0FF204610BD421C10F8011B00290A
:10033000FBD1801A704730B504460020034600E028
:100340005B1C934203D2E05CCD5C401BF8D030BD17
:10035000034611F8012B00F8012B002AF9D11846A9
:1003600070472DE9FE4F804681EA0300C00F0C461E
:10037000009021F0004123F00045B8EB0200A941B4
:1003800005D24046214690461C460B46024623F0C5
:100390000040104347D0270DC7F30A00C3F30A51AA
:1003A0000290401A019040286BDAC3F3130040F426
:1003B000801B0098924620B10023D2EB030A63EB26
:1003C0000B0B01985946C0F14002504600F0E6F987
:1003D00006460D4650465946019A00F0EEF910EBDC
:1003E00008006141002487EA115284EAE7731A4346
:1003F00040D0009A62B3019A012A4FEA075215DCF5
:10040000001B61EB02014FF0004202EA0752CDE906
:100410000042001C41F5801132462B4600F025FABF
:1004200003B0BDE8F08F40462146F9E7001B61EBC1
:100430000201001C41F5801300185B412018A2F551
:10044000001747EB030140EAD570B6196D4111E082
:100450006D084FEA360645EAC0754FEA0752001BA1
:1004600061EB0201001C41F5801149084FEA3000A0
:100470000019514132462B4603B0BDE8F04F00F061
:10048000E5B90098012240000023D0EB020263EBA3
:10049000E073009821464FEAE074B8EB000061EB8E
:1004A0000401E9E783F000435BE781F0004158E78E
:1004B0002DE9FE4F81EA030404F0004421F00041DD
:1004C00000944FF0000B23F0004350EA01045ED08B
:1004D00052EA03045BD0C3F30A54C1F30A552C4417
:1004E000A4F2F3340194A0FB0254C1F3130141F4CC
:1004F0008011C3F3130343F4801301FB024400FB98
:10050000034E840A970A44EA815447EA8357A4FBBE
:10051000076802958D0A05FB07854FEA932C04FBBB
:100520000C542705029D4FEA065847EA1637B5EBEB
:1005300008056EEB070C870E920E47EA811742EA18
:100540008312A7FB0201B6EB0B0164EB00042B0D39
:1005500043EA0C335E1844EB1C50DA465146E7FB85
:100560000201C5F313044FEA0B3343EA14534FEA75
:100570000432019C43EA0603A4F10C040294009C9B
:10058000CDE900B400F071F903B0BDE8F08F0020B0
:100590000146F9E72DE9F04D81EA030404F0004B30
:1005A00021F0004514464FF0000A23F0004150EAC4
:1005B000050220D054EA01021DD0C5F30A570246B5
:1005C000C5F31303C1F31300C1F30A5640F48015B9
:1005D00043F48013A7EB0608101BD64608F2FD383B
:1005E00073EB050002D308F1010801E092185B41AA
:1005F000B8F1000F03DA00200146BDE8F08D0020BD
:100600004FF48011064684460EE0171B73EB050776
:1006100005D3121B63EB050306434CEA010C4908A2
:100620004FEA300092185B4150EA0107EDD152EADF
:10063000030012D082EA040083EA0501084305D0D2
:10064000101BAB4106D20122002306E000224FF02E
:10065000004302E06FF0010253101AEB06004CEB6E
:10066000085110EB0A0041EB0B01BDE8F04D00F022
:10067000EDB870B5C1F30A5201F000450024C1F392
:10068000130140F2FF3341F480119A4201DA002055
:1006900070BD40F233439A42A2F2334203DC52422D
:1006A000FFF7FFFD00E090402C43F1D0404270BDC9
:1006B00000F0004230F000400AD0C10D01F5607139
:1006C000C0F3160042EA0151C208400711437047C7
:1006D000002001467047000030B5041E71F100048F
:1006E00004DB4FF00044404264EB0101141E73F13F
:1006F000000405DB1C464FF00043524263EB040349
:100700008B4208BF824230BD30B5041E71F1000437
:1007100004DB4FF00044404264EB0101141E73F10E
:10072000000405DB1C464FF00043524263EB040318
:10073000994208BF904230BD01F0004330B421F02F
:10074000004150EA010206D00A0DA2F56072C1F321
:100750001301002A02DC30BC00207047440F44EA39
:10076000C104C100E01830BC00EBC25000F037B843
:1007700030B50B46014600202022012409E021FA71
:1007800002F59D4205D303FA02F5491B04FA02F56E
:100790002844151EA2F10102F1DC30BD202A04DB41
:1007A000203A00FA02F1002070479140C2F1200384
:1007B00020FA03F3194390407047202A06DBCB1739
:1007C000203A41FA02F043EAE07306E041FA02F30C
:1007D000D040C2F1200291400843194670470029D9
:1007E000A8BF7047401C490008BF20F001007047B7
:1007F00010B4B0FA80FC00FA0CF050EA010404BF17
:1008000010BC704749B1CCF1200421FA04F411FA6C
:100810000CF118BF012121430843A3EB0C01CB1DB0
:100820004FEA00614FEA102042BF002010BC704721
:1008300000EBC35010440029A4BF10BC7047401CFB
:10084000490008BF20F0010010BC704710B5141E0D
:1008500073F1000408DA401C41F1000192185B4179
:100860001A4301D120F0010010BD2DE9F04D924650
:100870009B4611B1B1FA81F202E0B0FA80F2203267
:100880009046FFF78BFF04460F4640EA0A0041EA14
:100890000B0153465A46084313D0114653EA010050
:1008A00019D0C8F140025046FFF7FBFC05460E4642
:1008B000504659464246FFF771FF084305D00120D4
:1008C00004E020463946BDE8F08D0020054346EAA5
:1008D000E0762C4337430A986305E40AA0EB08004E
:1008E0000022FD0A44EA47540A3002D5002001469E
:1008F000E9E7010510196941DDE908450019694179
:10090000BDE8F04DA2E7C1F30A52C1F3130140F272
:10091000FF3341F480119A4202DA00200146704709
:1009200040F233439A42A2F2334202DC5242FFF7D2
:10093000B8BCFFF733BF0000064C074D06E0E06887
:1009400040F0010394E8070098471034AC42F6D316
:10095000FFF730FCA8E70C08C8E70C0870B58D1845
:1009600010F8014B14F0030201D110F8012B2311F0
:1009700006D110F8013B03E010F8016B01F8016BA0
:10098000521EF9D1ABB110F8012B04F00C048A1AF5
:100990000C2C03D0A2EB84129B1C08E010F8014B36
:1009A000A2EB0422F8E712F8014B01F8014B5B1EA1
:1009B000F9D5A942D4D3002070BD0000EFF309811E
:1009C00041B1F1EE101A40F8041D20ED200A3E4915
:1009D0000A6810607047B0EC200A02C8E1EE101AF5
:1009E0003A490A681060704772B64EF62250CEF24D
:1009F000000040F2FF01C0F2000101704FF0000062
:100A000080F309880FF060F940F2E010C2F20000B4
:100A1000016881F3088840F24E10C2F2000040F2F3
:100A20004F11C2F200010A78027040F2D815C2F2EA
:100A3000000540F2DC11C2F200010A682A60106869
:100A400080F30988EFF3148040F0020080F31488EB
:100A5000BFF36F8FBDE8F00F0FBCBDE8005006BCC0
:100A600062B608471A484FF0805101607047184835
:100A70004FF080510160704772B6EFF3098020E9B2
:100A8000F00F40F2D815C2F200052E6830607446AF
:100A90000FF01AF940F24E10C2F2000040F24F116E
:100AA000C2F200010A78027040F2DC11C2F20001C9
:100AB0000A682A6044F0F40E1068B0E8F00F80F382
:100AC000098862B670470000D8010020DC010020D0
:100AD00004ED00E070B50546AC6B206C00F05000F2
:100AE00050BB206C40F4007020642068806800F0E7
:100AF0004050E8B9A069D8B92068C06A00F4700015
:100B000020B12068806800F4806088B9206840685F
:100B100020F0200021684860206C20F48070206460
:100B2000206C00F4805018B9206C40F00100206463
:100B3000204607F0ABFD03E0A06BC16C2846884758
:100B400070BD70B50546AC6B40202064606C40F011
:100B500004006064204607F0A4FD70BD70B5044633
:100B6000A56B284607F09CFD70BD000054494A68FB
:100B700022F440324A604A6843681A434A60026875
:100B8000526822F4807203685A60026853680269EE
:100B900043EA022203685A600268526822F04072F7
:100BA00003685A600268526883681A4303685A608F
:100BB0000268926822F4006203689A600268926890
:100BC000C3681A4303689A603E4B826A9A4218D0FF
:100BD0000268926822F0706203689A600268926804
:100BE000836A1A4303689A600268926822F040524E
:100BF00003689A6002689268C36A1A4303689A603D
:100C00000BE00268926822F0706203689A600268E2
:100C1000926822F0405203689A600268926822F05B
:100C2000020203689A6002689368826943EA42029A
:100C300003689A60026AA2B10268526842F40062D4
:100C400003685A600268526822F4604203685A607E
:100C500002685368426A521E43EA423203685A608D
:100C600005E00268526822F4006203685A60026874
:100C7000D26A22F470020368DA620268D36A828B55
:100C8000521E43EA02520368DA620268926822F452
:100C9000007203689A6002689368026B43EA42221A
:100CA00003689A600268926822F4806203689A601E
:100CB00002689368426943EA822203689A60704737
:100CC000002301400100000F002800DC4042704773
:100CD0003EB50020019002906FF00904F7480078BB
:100CE00014287DD2DFE800F0157CF5F4F3F2F17CF6
:100CF000F0EFEEEDECEBEAE9E8E70AE6F04804F0A5
:100D0000BBFB28B90120ED490870002004F09CFFCE
:100D100021E2EB4804F0B0FBEA48407810B9FF202C
:100D2000E9498870002004F08FFFE74880780028A8
:100D30000BDBE5488078192807DC6FF02C020021D6
:100D4000E24802F02FFC44B236E0DF4880781928F0
:100D50000BDDDD488078322807DC6FF02C020021A3
:100D6000DB4802F007FA44B226E0D7488078322800
:100D70000BDDD54880784B2807DC6FF02C02002172
:100D8000D44802F0EBF844B216E0CF4880784B2804
:100D90000BDDCD488078642807DC6FF02C02002141
:100DA000CD4802F0F3FA44B206E06FF02C020021C5
:100DB000C64802F0F7FB44B2002C7AD1C2488078D2
:100DC000002812DBC048807864280EDABE4882789A
:100DD000C2A101A81BF0DCFB6FF05E02002100E065
:100DE0009AE301A804F058F905E06FF055020021DC
:100DF000BBA004F051F940F2DC5003F0DBFE10B16F
:100E000003F0A2FE89E30F2340F28A221146AC4888
:100E100005F018FB01285DD1002004F015FFAA4859
:100E2000807800280ADBA8488078192806DC32235D
:100E300000220221104611F0DDFA32E0A24880784B
:100E400019280ADDA0488078322806DA32230022E9
:100E50000921104611F0CEFA23E09B488078322811
:100E60000ADD994880784B2806DC322300220721CE
:100E7000104611F0BFFA14E0934880784B280ADD41
:100E800091488078642806DC32230022082110462D
:100E900011F0B0FA05E0322300220221104611F0D1
:100EA000A9FA40F6B83003F085FE98B103F04CFE85
:100EB00033E313E09EE027E308E3FDE276E2D9E2C4
:100EC000C5E25FE2D4E1BFE1ABE1A4E07EE035E062
:100ED00020E00DE00E207949087008E0002003F0C2
:100EE00069FE08B103F030FE0E207449087014E367
:100EF0006FF05E0200217BA004F0CEF848B940F20A
:100F0000DC5003F057FE08B103F01EFE03206B49CE
:100F1000087002E30F2340F28A221146684805F068
:100F200091FA012809D140F2DC5003F043FE08B1E8
:100F300003F00AFE0E2061490870EEE20F204FF424
:100F400002731A46684900905D4806F039F9012895
:100F50003BD1664A0090D1684FF4A573D0686422F3
:100F600005F07CFB0220614A009011684FF4A573E4
:100F700010684FF4967205F071FB00205C4A0090F7
:100F800011694FF4A57310694FF4FA7205F066FB0E
:100F90000320564A009091684FF4A57390684FF46F
:100FA0002F7205F05BFB5149002208696FF00B01BD
:100FB00006F0E0F943F6982003F0FCFD10B103F0D1
:100FC000C3FDAAE205203D490870A6E2002004F016
:100FD0003BFE4848006804F019FC03F04BFE40F269
:100FE000DC5003F0E7FD08B103F0AEFD0E203349FD
:100FF000087092E2404804F03FFA58B9002003F02C
:10100000D9FD08B103F0A0FD07202C49087000208D
:1010100004F01AFE81E2384804F02EFA294840789C
:1010200040B9FF202849C8704FF6FF708880C880FB
:1010300008814881002004F007FE2348C07800287A
:101040000BDB2148C078192807DC6FF02C0228211F
:101050001E4802F021FA44B257E01B48C078192814
:101060000BDD1948C078322807DC6FF02C022821EC
:10107000174801F0F9FF44B247E01348C07832281E
:101080000BDD1148C0784B2807DC6FF02C022821BB
:10109000104801F0DDFE44B237E00B48C0784B2821
:1010A0002CDD0948C078642828DC6FF02C02282148
:1010B000094802F0E5F844B227E00000C4740120BA
:1010C00078FE02087CB30020E801002064030020C1
:1010D000A40400203C060020C8070020256400006E
:1010E0004E410000393900009C2D0308B4C1002096
:1010F00068C20020F40100202CC704086FF02C0205
:101100002821F74802F0C8F944B2002C7FD1F548F5
:10111000C078002811DBF348C07864280DDAF14864
:10112000C278AFF2480101A81BF032FA6FF05E02FC
:101130002D2101A803F0B0FF06E06FF05E022D2123
:10114000AFF2640003F0A8FF40F2DC5003F032FD80
:1011500010B103F0F9FCE0E10F2340F28A221146BE
:10116000E14805F06FF901284DD1002004F06CFD35
:10117000DC48C07800280ADBDA48C078192806DC89
:10118000372300220321104611F034F932E0D5480C
:10119000C07819280ADDD348C078322806DC372306
:1011A00000220721104611F025F923E0CD48C07830
:1011B00032280ADDCB48C0784B2806DC37230022D2
:1011C0000B21104611F016F914E0C648C0784B28E0
:1011D0000ADDC448C078642806DC372300220C21CD
:1011E000104611F007F905E03723002203211046CD
:1011F00011F000F940F6B83003F0DCFC18B103F050
:10120000A3FC8AE103E00E20B849087008E0002042
:1012100003F0D0FC08B103F097FC0E20B34908702E
:101220007BE16FF05E022D21AFF2481003F034FF36
:1012300048B940F2DC5003F0BDFC08B103F084FC77
:101240000920AA49087068E10F2340F28A2211465A
:10125000A54805F0F7F8012809D140F2DC5003F069
:10126000A9FC08B103F070FC0E20A049087054E1FD
:101270000F204FF402731A469D4900909A4805F0DA
:101280009FFF01287DD1974880884FF6FF718842E3
:101290000AD10820934A0090918890884FF4A57352
:1012A000642205F0DBF909E004208E4A0090918861
:1012B00090884FF4A573642205F0D0F98948C0885E
:1012C0004FF6FF7188420BD10820864A0090D188E2
:1012D000D0884FF4A5734FF4967205F0BFF90AE079
:1012E0000520804A0090D188D0884FF4A5734FF430
:1012F000967205F0B3F97B4800894FF6FF7188427A
:101300000BD10820774A0090118910894FF4A573FA
:101310004FF4FA7205F0A2F90AE00620714A009033
:10132000118910894FF4A5734FF4FA7205F096F9FC
:101330006C4840894FF6FF7188420BD10820694AFA
:101340000090518950894FF4A5734FF42F7205F026
:1013500085F90AE00720634A0090518950894FF4CB
:10136000A5734FF42F7205F079F943F6982003F036
:1013700021FC18B103F0E8FBCFE002E00B205B4951
:101380000870CAE0002004F05FFC5A48006804F0CE
:101390003DFA03F06FFC40F2DC5003F00BFC08B1A7
:1013A00003F0D2FB0D2051490870B6E04F48407859
:1013B00030B101280ED0022816D0032844D11DE0F8
:1013C0004A48007910B9002048490870012047496F
:1013D00048703AE04548407910B904204349087004
:1013E00002204249487030E04048807910B9062018
:1013F0003E49087003203D49487026E03B48C079CB
:1014000010B90A2039490870002038494870084648
:10141000407A012806D13848407818B90846007A41
:10142000401C08723148007A03280CD12F48407ABA
:10143000012808D13048407828B900202B4908728B
:1014400048721120087000E000BF00BF65E0002076
:1014500004F0FAFB2748006804F0D8F903F00AFC0E
:101460002648007801F010F803F004FC0E201F4914
:10147000087052E020484078D0B9002004F0E4FB26
:101480001C48006804F0C2F903F0F4FB8C2300222E
:101490000421104610F0AEFF002014F061FD184842
:1014A000007801F0BFF8012014F05AFD03F0E2FBD0
:1014B0000E200E49087030E01248007801F050F814
:1014C00003F0D8FB0E200949087026E00D4800788B
:1014D00000F0FEFF03F0CEFB0E20044908701CE074
:1014E00064030020E80100202CC70408C474012014
:1014F000B81D0508F40100207CB300206002002024
:10150000610200206202002001F0A6FB03F0B2FBA2
:101510000E200349087000E000BF00BF3EBD000080
:10152000C474012070B555488078092878D2DFE866
:1015300000F005223F4F616B788298000BF02AFB88
:101540004F494988441A0BF011FB4D490988451A47
:1015500004EBD470421005EBD5704110484803F0FD
:10156000C1FD41F2883003F09FFC03F083FB0120B2
:101570004249887080E00BF00DFB42494988441ACB
:101580000BF0F4FA3F490988451A04EBD470421075
:1015900005EBD57041103B4803F0A4FD41F28830C3
:1015A00003F082FC03F066FB02203449887063E09C
:1015B000002014F0D5FC3448007800F049FF0120E9
:1015C00014F0CEFC03F056FB03202C49887053E046
:1015D00004E0002003F030FE03F04CFB2B480178C0
:1015E0000078401E294A10700029F2D104202349B6
:1015F000887041E003F03EFB4FF47A7003F054FC36
:1016000005201E49887037E004F04CFD4FF4FA6065
:1016100003F04AFC03F02EFB0620184988702BE0EB
:1016200029E01B48007800F0FDFF03F023FB0720B2
:101630001249887020E0A02300220121104610F0FA
:10164000D9FE002014F08CFC1248007800F01CFF3A
:10165000012014F085FC03F00DFB08200749887079
:101660000AE003F007FB4FF47A7003F01DFC012041
:101670000949C87000E000BF00BF70BDCE740120F2
:101680004CD8070874E109086402002063020020B6
:101690006502002066020020D874012000B585B0E4
:1016A00004AB01223EA142480DF022FB04AB012213
:1016B00040A143480DF01CFB04AB012241A144486A
:1016C0000DF016FB04AB002242A145480DF010FBC3
:1016D00044A1474800F0D6F93EA20021404800F05E
:1016E000E0F904A80021434A0123CDE90032CDE905
:1016F00002100B4640F6B8323FA141480EF006FCFE
:1017000004A800213F4A0123CDE90032CDE90210AF
:101710000B4644F620623CA13D480EF0F7FB04A8BE
:1017200000213C4A0123CDE90032CDE902100B46ED
:1017300047F2305238A13A480EF0E8FB04A80021E5
:10174000384A0123CDE90032CDE902100B4640F6BC
:10175000B83235A136480EF0D9FB04A80021354A2D
:101760000123CDE90032CDE902100B4649F6404293
:1017700031A133480EF0CAFB04A80021314A0123ED
:10178000CDE90032CDE902100B460A222EA13048E5
:101790000EF0BCFB04A92E480EF01CFC05B000BDE9
:1017A0004170705072696E746653656D7000000010
:1017B000A8690020574946495F53454D0000000085
:1017C000F869002053454E534F525F53454D00007A
:1017D000206A002053454D5F53594E434800000096
:1017E000D069002053454D5F4D55544558000000C9
:1017F000986B0020CDFC0108746D72310000000070
:10180000486A002049FA0108746D72320000000035
:10181000786A002081FA0108746D723300000000BC
:10182000A86A0020B9FA0108746D72340000000043
:10183000D86A0020F1FA0108746D723500000000CA
:10184000086B002021FB0108746D72370000000056
:10185000686B002000B58BB00AA803210022059216
:10186000CDE90621089010464FF40061CC22074BC9
:10187000CDE90132CDE9031004200023044A05A17B
:10188000009008480DF0FAFC0BB000BD08200020C5
:10189000A9180008417070205461736B20475549A6
:1018A00000000000381F002008B506A000F02CF84A
:1018B00007E00CF0CDFC6A4600214FF47A700EF080
:1018C0006DFAF6E70D0A4755492073746172742E5C
:1018D0002E2E0D0A0000000008B500F03AFB1CF0A7
:1018E000C9F968460DF040FC00F0A2FBFFF7B2FF1B
:1018F000FFF7D4FE06E01CF063FD6A4600213220AB
:101900000EF04CFAF7E700000FB400B599B01BA831
:101910000390512104A8039B1A9A1AF04DFE00204F
:10192000039002A800231A461946009007480DF0BC
:1019300023FA04A906A01AF01BFE02AA00210348FC
:101940000DF0FEFA19B05DF814FB0000A869002044
:101950002573000010B509F0A7F90446204610BD14
:101960002DE9F04F87B004460E4617469846DDE94C
:1019700011A9109D204606F095FD8346C4EBC400D6
:101980001B4951F82000C4EBC401194A02EB810144
:1019900089680BFB0100C4EBC40102EB8101C9683B
:1019A00007FB0161C4EBC402114B03EB82025269D5
:1019B00001FB02000690484609EBD071C5EB6101BE
:1019C0000591C4EBC400194601EB8000C068401BC0
:1019D0000490DDE904012B46CDE900A102904146C7
:1019E0002046069A00F0F6FE07B0BDE8F08F000032
:1019F00078DA00202DE9F04F87B004460E461746EE
:101A00009846DDE9119A109D204606F04BFD83466D
:101A1000C4EBC4001A4951F82000C4EBC401184AB1
:101A200002EB810189680BFB0100C4EBC40102EBEE
:101A30008101C96807FB0161C4EBC402104B03EBD1
:101A40008202526901FB02000690AAEB0500059094
:101A5000C4EBC400194601EB8000C068401B049031
:101A600020460BF0CDFA039003988DE82102404602
:101A7000DDE90432069900F0DDFE07B0BDE8F08F25
:101A800078DA002038B504460D466A4629462046D5
:101A90000CF01CFEBDF8000008B1002038BD01208C
:101AA000FCE7F8B506460C4615466B462246294625
:101AB00030460DF01DF9BDF8000008B10020F8BD5A
:101AC0000120FCE710B51F481F49086002201F498C
:101AD000086007204860042088600720C860022052
:101AE0000861486188610120174948600021164853
:101AF00081600421C16010210161402141614FF4E6
:101B0000C07181610021C1614FF400610162002157
:101B100041624FF400518162002100F067F80B49E7
:101B2000094809F08FFB18B101200949087002E04B
:101B300000200749087040F26A5000F00BF8044892
:101B4000007810BD400100A0DC730020107400205C
:101B50003100002038B504460020009001202149C2
:101B6000086008204860012088600020C8604FF6A7
:101B7000FF721D4809F09BFB012007F061F902206C
:101B80001849086008204860012088600020C8606B
:101B90004FF6FF72144809F08AFB032011490860D0
:101BA00008204860042088600020C8604FF6FF725B
:101BB0000D4809F07CFB4FF40C700090042009499B
:101BC000086008204860012088600098C8604FF6CF
:101BD000FF72054809F06BFB2146034809F053FBEF
:101BE00038BD00002C740020DC73002030B587B0B5
:101BF00004460D46002C7DD000BF002001906D48AA
:101C0000006840F001006B4908600846006800F079
:101C10000100019000BF00BF00BF00200190654897
:101C20000838006840F480006249083908600846B6
:101C3000006800F48000019000BF00BF00BF0020DA
:101C400001900846006840F00200086008460068FD
:101C500000F00200019000BF00BF00BF0020019013
:101C60000846006840F0040008600846006800F07C
:101C70000400019000BF00BF00BF00200190084693
:101C8000006840F0080008600846006800F008009E
:101C9000019000BF00BF00BF00200190084600680F
:101CA00040F0100008600846006800F01000019045
:101CB00000BF00BF00BF002001900846006840F050
:101CC000200008600846006800F02000019000BF76
:101CD00000BF00BF002001900846006840F04000AF
:101CE00008600846006800F04000019000BF00BF97
:101CF000022000E05CE003900590002004900C209E
:101D000006906020029002A92B4807F0ADF8012050
:101D1000029002A9294807F0A7F84CF2037002903C
:101D200002A9274807F0A0F84FF68370029002A995
:101D3000244807F099F84FF63F00029002A9224884
:101D400007F092F848F23310029002A91F4807F0FA
:101D50008BF800201E49486080211D488160890061
:101D6000C1604900016189004161890081610021F0
:101D7000C1614FF40031016204214162032181629B
:101D80000021C162016313481149086000BF084681
:101D90002063846300BF06F03CFE0D4806F08AFF16
:101DA00000220F21382007F054FE382007F044FEAF
:101DB00007B030BD3838024000040240000802403D
:101DC000000C0240001002400014024000180240C3
:101DD0003C7400201064024000BFFEE70346042B61
:101DE00015D007DC7BB1012B0ED0022B0DD0032BBD
:101DF00012D10BE0202B0BD0212B0AD0222B09D0A3
:101E0000232B09D107E008E007E006E005E004E045
:101E100003E002E001E000E000BF00BF00207047E7
:101E20000020704710B500220449054812F0B0F8B0
:101E30000449034812F0A5F8002010BD777701206F
:101E4000147501203877012070B504460D462146EF
:101E5000034812F096F8024812F06FF8002070BDA7
:101E6000147501202DE9F04104460D4600260A486C
:101E7000D0F81872D7F8140210B10120BDE8F08133
:101E80002A462146044812F083F8034812F0D2F89B
:101E900006463046F2E70000147501207CB5214C5F
:101EA0000546216831F8220F4A8D10440880488881
:101EB000CA8D10444880284603F0DCFB2168498C19
:101EC000ADF800104618284606F004F93044401ECC
:101ED000ADF8040003F0F4FB2168898CADF8021022
:101EE0000844401EADF80600684614F063FA04E0AA
:101EF000284601F0D5FB14F003FA0028F8D10A2D8A
:101F000004D0BDF804002168401C4884206830F8E3
:101F1000221F428D891A01804188C28D891A418011
:101F20007CBD0000E409002010B5044620680F289D
:101F300009D102F09FFE6FF0310300220621104606
:101F400010F058FA00BF204613F012FE00BF00BF89
:101F500010BD10B500F0FCF800F004F800F0F4F843
:101F600010BD000070B500260020184908801849EF
:101F7000088018490860184908601849086018491D
:101F8000086018490860002400BFFEF743F90646C0
:101F900000BF00250BE000201049086000F074F835
:101FA00000F08CF80D4800680444681C85B2002DD0
:101FB000F1D00C4804600020084908600849086016
:101FC00000BF3046FEF72AF900BF70BDF0000020C8
:101FD000F2000020F4000020F800002000010020A2
:101FE00004010020FC00002001460846044A126853
:101FF000904203D9024A1268801A00E0002070471C
:10200000FC00002070B5002500BFFEF703F905466F
:1020100000BF0648046800BF2846FEF7FFF800BF6F
:102020002046FFF7E1FF0646304670BD0001002064
:1020300070B50025FFF7E6FF044600BFFEF7EAF89B
:10204000054600BF00200449086000BF2846FEF78F
:10205000E5F800BF204670BD0001002070B50025E6
:1020600000BFFEF7D7F8054600BF0648046800BF6A
:102070002846FEF7D3F800BF2046FFF7B5FF064617
:10208000304670BD0401002010B509480088401C8E
:10209000074908800748008818B900F083F8064906
:1020A000086004480088401C0249088010BD0000F8
:1020B000F0000020F2000020F400002010B50F48CE
:1020C0000088401E0D49088008460088A0B900F02D
:1020D00069F80B490860084600680A490968441A0B
:1020E00009480068A04201D2074804600748006818
:1020F000A04201D20548046010BD0000F20000209B
:10210000F8000020F400002000010020040100205D
:1021100010B5002400BF00BFFEF77CF8044600BFE6
:10212000FFF7B2FF00BF102106480CF0FBF800BF1C
:10213000FFF7C4FF00BF2046FEF770F800BF00BFE6
:1021400010BD00008CC2002010B5FFF7E1FF10BDEC
:1021500010B500200249086000F00AF810BD000028
:10216000EC0000200149086070470000EC000020EE
:1021700010B5FFF7EFFB04460848006840F0807098
:10218000064908600020064948600846006840F09B
:10219000010008602046FFF7E5FF10BDFCED00E000
:1021A000001000E00149486870470000001000E09E
:1021B0002DE9FE4304460E461546204606F072F908
:1021C0000746C4EBC400144951F8200007FB060879
:1021D000C4EBC40051F8200007FB05090021C4EB43
:1021E000C4000D4B03EB80000069CDE90001C4EB96
:1021F000C4000291194601EB80004A464146C3687B
:10220000204600F0E7FAC4EBC400034901EB80006C
:102210008560BDE8FE83000078DA00202DE9FF5FCD
:1022200004460E4617469846DDE90F5ADDF8389009
:10223000C4EBC400204951F82000C4EBC4011E4A7D
:1022400002EB8101C96807FB0161C4EBC4021A4BB0
:1022500003EB8202526901FB020BC4EBC400194676
:1022600051F82000C4EBC4011A4602EB8101C96891
:1022700009FB0181C4EBC40203EB8202526901FB3A
:1022800002000390C4EBC400194601EB8000C06853
:10229000401BC4EBC4011A4602EB8101C968491B0B
:1022A0002B46CDE900A1029059462046039A00F042
:1022B00091FABDE8FF9F000078DA00202DE9FE4F7B
:1022C00004460D4616461F46DDF8309003F0EAF945
:1022D000012810D10022192120460BF017F94B4696
:1022E0003A46314628460AF069FB204A1921204621
:1022F0000BF00CF937E0781B00F10108A9EB0600A0
:10230000401C0290204606F0CDF88246C4EBC40083
:10231000174951F82000C4EBC401154A02EB8101B2
:1023200089680AFB0100C4EBC40102EB8101C968A2
:1023300006FB0151C4EBC4020D4B03EB8202526950
:1023400001FB020BC4EBC4011A4602EB81010D989C
:10235000C968A1EB0801CDE9001042465946204664
:10236000029B00F08FFABDE8FE8F0000BD2200083E
:1023700078DA00201248007820B100201049087057
:10238000012070470E48C07828B100200C49C87061
:1023900001208871F5E70A48007928B10020084932
:1023A00008710120C871ECE70548807828B1002049
:1023B0000349887001204871E3E70020E1E700004D
:1023C00000000020F8B504460D4616461F460320BF
:1023D0003B46324629460090204600F0C1F9F8BD40
:1023E000F8B504460D4616461F4604203B463246C5
:1023F00029460090204600F0B3F9F8BDF8B5044630
:102400000D4616461F4602203B463246294600909E
:10241000204600F0A5F9F8BDF8B504460D4616466D
:102420001F4600203B46324629460090204600F0D9
:1024300097F9F8BDF8B504460D4616461F4600202C
:102440003B46324629460090204600F089F9F8BD07
:1024500070B50446002013F075FC0546084913F0DA
:1024600058FE06E0074813F0FBFC4FF4967002F0AC
:102470001BFD201EA4F10101CCB2F3D170BD000000
:1024800095C901081602002070B50446002013F01B
:1024900059FC05460B4913F03CFE0CE00A4813F0CA
:1024A000DFFCC82002F086FB28B102F04DFB0020C3
:1024B0000649087004E0201EA4F10101CCB2EDD160
:1024C00000BF70BD5DCB01082E0200200502002078
:1024D00070B50446002013F035FC0546144913F08E
:1024E00018FE1EE01348407898B10020114948704A
:1024F00011A01AF03DF84FF4CD7102200FF046FF05
:102500004FF47A7002F0D0FC01201AF0FCF90BF0C5
:1025100059FF4FF47A7002F04DFB10B102F014FB3A
:1025200004E0201EA4F10101CCB2DBD100BF70BDDC
:10253000291F0008000000205B627574746F6E2014
:10254000707265737320445F4B45595D20434F3271
:102550002043616C6962726174696F6E210D0A00BB
:1025600070B50446002013F0EDFB05461C4913F03E
:10257000D0FD2EE01B484078002822D000201949C9
:10258000487019A019F0F4FF1022002120A01DF0BE
:1025900067F9012804D0102200211DA01DF060F968
:1025A000102251011AA01DF05BF9012804D010225D
:1025B000510117A01DF054F901201AF0A4F90BF0F5
:1025C00001FF4FF47A7002F0F5FA10B102F0BCFA94
:1025D00004E0201EA4F10101CCB2CBD100BF70BD3C
:1025E0004D210108000000205B627574746F6E203D
:1025F000707265737320445F4B45595D207265733B
:1026000065742073797374656D210D0A00000000F4
:1026100030303030303030303030303030303030BA
:102620000000000070B50446002013F08BFB054647
:102630000C4913F06EFD0DE00B4813F011FC4FF444
:10264000967002F0B7FA28B102F07EFA002007492E
:10265000087004E0201EA4F10101CCB2ECD100BF4F
:1026600070BD000031D201080E02002004020020DB
:1026700010B5024806F0FEF910BD000038770020C2
:1026800010B5024806F0F6F910BD00005878002099
:1026900010B5024806F0EEF910BD00007876002073
:1026A00010B5024806F0E6F910BD0000F8770020EA
:1026B00010B5024806F0DEF910BD0000D876002003
:1026C00010B5024806F0D6F910BD0000987700203A
:1026D0002DE9F04107460C4615461E4632460B4989
:1026E000384609F04FFF32460949204609F04AFFB3
:1026F0003346084A0649054800F00EF83246294696
:10270000044809F03FFFBDE8F0810000940C01206F
:10271000943E012094DA002030B50F4C0F4D2C6010
:102720002C46E0606161E26300242C61AC612C64A2
:10273000EC616C626C63012404EB03446C642C4612
:10274000246844F001042C6000BF044C246804F0A9
:102750000104002CF9D130BD0002020000B002409B
:102760002DE9F84305460E4614469846089F224632
:102770000649284609F010FF3B460022314603482F
:10278000009400F005F8BDE8F883000094DA00201A
:1027900070B5049C4FF481350D4E35603546E860C8
:1027A000E9630025356135643546EA616B630125CF
:1027B00005EB0445756435462D6845F00105356027
:1027C00000BF034D2D6805F00105002DF9D170BD46
:1027D00000B002402DE9F05F07460C4615461E4644
:1027E000DDE90B9ADDF8288038460AF009FC8346BB
:1027F0004FF400700E4908600846C460C563C0F815
:102800001090C0F840A0C0F81CB0404666F31F40CE
:1028100048640846006840F00100086000BF0448B2
:10282000006800F001000028F9D1BDE8F09F000029
:1028300000B00240F0B505AC70CC4FF48137DFF842
:1028400040C0CCF800706746F860F9633A613B64B9
:102850000527CCF81C7067467C6346EA0547CCF830
:10286000447067463F6847F00107CCF8007000BF2E
:10287000034F3F6807F00107002FF9D1F0BD0000BA
:1028800000B002402DE9F04707460C4615461E46AB
:10289000DDE9088938460AF0B3FB82460E480F4945
:1028A00008600846C0F83890C463C0F84080C0F89B
:1028B00034A0304665F31F4048640846006840F085
:1028C0000100086000BF0548006800F00100002812
:1028D000F9D1BDE8F08700000002030000B002401B
:1028E0002DE9F84305460E4614469846089F0023F6
:1028F0003A46064928460094FFF74AFF22463146E9
:10290000024809F049FEBDE8F883000094DA00208F
:10291000074AD0624A1ED2B2012343EA0222044B84
:10292000DA611A46D26942F02002DA61704700008B
:1029300000B002401EB5034601F07F40B0F17F4F6A
:1029400001D118461EBD83F07F40029081F07F4088
:1029500001901548154C206002A8E06001A8606154
:10296000C4F83CD04FF4803040EA0260E061C2F12C
:10297000FF00002444EA00600C4C606200206063A9
:102980004FF0011060642046006840F001002060B4
:1029900000BF0648006800F001000028F9D1009847
:1029A00080F07F40CEE700000002020000B002404D
:1029B00070B5049C124D134E35603546E860696170
:1029C000EA634FF4803545EA0365F561C3F1FF051D
:1029D000002646EA05650B4E7562002575630125E4
:1029E00005EB0445756435462D6845F001053560F5
:1029F00000BF044D2D6805F00105002DF9D170BD13
:102A00000002020000B0024010B5024806F032F8A1
:102A100010BD00007879002010B5024806F02AF8B1
:102A200010BD0000B878002010B50249886B06F090
:102A300021F810BD34B2002010B5024806F01AF893
:102A400010BD0000D879002010B5024806F012F839
:102A500010BD0000187900200146087810381823AE
:102A6000B0FBF3F20848805CC865032A05D9086802
:102A70006FF30900001D886503E008686FF3090023
:102A80008865886D704700001CFE01080146002023
:102A90008A6A8B69CBB932B1012A0DD0022A03D0E0
:102AA000032A10D10EE000BFCB6A03F08073B3F1AC
:102AB000807F00D1012007E0CB6AB3F1C07F00D155
:102AC000012001E000E000BF34E08B69B3F5005F56
:102AD0001AD132B1012A07D0022A03D0032A11D118
:102AE0000AE000BF01200EE0CB6A03F08073B3F16F
:102AF000807F00D1012006E0CB6AB3F1C07F00D116
:102B0000012000E000BF15E032B1012A05D0022A01
:102B100004D0032A0CD103E000BF00BF012008E06D
:102B2000CB6A03F08073B3F1807F00D1012000E015
:102B300000BF00BF704730B50468246824F48024C7
:102B400005682C60046863608468402C04D10468C4
:102B5000A2600468E16003E00468A1600468E260C8
:102B600030BD704700BF011EA0F10100FBD17047CE
:102B7000F8B5044620680F2860D1002003F064F8FF
:102B80003148006802F042FE02F074F82E480068F6
:102B900003F05AF809F0FEFF2C494988451A05EB65
:102BA000D5704010A0F1690709F0E0FF27490988B6
:102BB000461A06EBD67041103A46244802F092FAC3
:102BC0002148006802F040FE0120214A0090D168AF
:102BD0004FF4A573D068642203F040FD02201C4A24
:102BE000009011684FF4A57310684FF4967203F0CB
:102BF00035FD0020174A009011694FF4A573106944
:102C00004FF4FA7203F02AFD0320114A00909168F4
:102C10004FF4A57390684FF42F7203F01FFD0C4919
:102C2000002208696FF00B0104F0A4FB642001F09E
:102C3000C1FF10B101F088FF04E003E0204612F06C
:102C400097FF00BF00BFF8BDF40100209C2D0308D2
:102C5000B4C1002068C200201CB50C4903C9CDE9ED
:102C6000000113F063F80446094913F052FA0AE030
:102C7000684613F0F5F84FF47A7001F09BFF10B13D
:102C800001F062FF00E0F3E700BF1CBD38A80A08AE
:102C9000712B000800B587B000BF002001900E48DE
:102CA000006840F010000C4908600846006800F019
:102CB0001000019000BF00BF10200290012003907F
:102CC000002004900120059002A9044806F0CCF8E9
:102CD0000FF0E0FA07B000BD3038024000100240AB
:102CE00030B50246002300240868012816D0136876
:102CF0006FF30E03D1E901052843CD6828430D6920
:102D000028434D6928438D692843CD6928430D6ABE
:102D100028434D6A28430343136019E0136823F4E2
:102D2000F843D1E9070528434D6A28430343546813
:102D30006FF30E04D1E901052843CD6828430D69DE
:102D400028434D6928438D69284304431360546028
:102D5000002030BD0246506940EA41005061002029
:102D60007047F8B506460C4615460020009000272F
:102D7000D4E900010843A168491E40EA4110E16816
:102D800040EA412000900098306106F089F907463A
:102D900009E0681C38B125B106F082F9C01BA842D1
:102DA00001D90320F8BDB06900F020000028F0D15F
:102DB00000BFF7E770B50346154600220024012D39
:102DC0001FD09A6802F070420868401E4E68761E56
:102DD00040EA06168868401E46EA0026C868401E7B
:102DE00046EA0036088A401E46EA0046888A401EA7
:102DF00046EA0056087E401E46EA006002439A609A
:102E000022E09A6811480240C868401E0603888A7A
:102E1000401E46EA00500243DC6804F07044086833
:102E2000401E4E68761E40EA06168868401E46EA36
:102E30000026088A401E46EA0046087E401E46EAF2
:102E4000006004439A60DC60002070BDFF0F0FFF3C
:102E50002DE9F84F05460F469046002634E00A2437
:102E60002FE0C4EB04200A21B0FBF1F000F0FF09D1
:102E70004B4632460121374818F0FCFC09F08AFE27
:102E80006988A0EB010909EBD97008EB600000909C
:102E900009F06CFE2988A0EB010A0AEBDA7007EB57
:102EA000600B59462846009A02F01CF9002001F0F8
:102EB00097FE28B101F048FE4FF0FF30BDE8F88FD3
:102EC000641E002CCDD1761C032EC8D34FF47A702B
:102ED00001F086FE20B101F037FE4FF0FF30EDE744
:102EE000002633E00A242EE0C4EB04200A21B0FBC4
:102EF000F1F000F0FF094B4632460121164818F068
:102F0000B9FC09F047FE6988A0EB010909EBD9700B
:102F100008EB600B09F02AFE2988A0EB010A0AEBF6
:102F2000DA7007EB60005A4601460090284602F02E
:102F3000D9F85A2001F054FE20B101F005FE4FF0FF
:102F4000FF30BBE7641E002CCED1761C022EC9D305
:102F50000020B3E7CC8E0B08DC8E0B082DE9F84F70
:102F600005460F469046002634E00A242FE0C4EBC5
:102F700004200A21B0FBF1F000F0FF094B46324675
:102F80000121374818F076FC09F004FE6988A0EBAF
:102F9000010909EBD97008EB6000009009F0E6FD2B
:102FA0002988A0EB010A0AEBDA7007EB600B59469F
:102FB0002846009A02F096F8002001F011FE28B190
:102FC00001F0C2FD4FF0FF30BDE8F88F641E002C09
:102FD000CDD1761C032EC8D34FF47A7001F000FED9
:102FE00020B101F0B1FD4FF0FF30EDE7002633E0F6
:102FF0000A242EE0C4EB04200A21B0FBF1F000F01B
:10300000FF094B4632460121164818F033FC09F0FF
:10301000C1FD6988A0EB010909EBD97008EB600BD1
:1030200009F0A4FD2988A0EB010A0AEBDA7007EB8E
:1030300060005A4601460090284602F053F85A2094
:1030400001F0CEFD20B101F07FFD4FF0FF30BBE776
:10305000641E002CCED1761C022EC9D30020B3E70B
:10306000CC8E0B08DC8E0B082DE9F84F05460F4679
:103070009046002634E00A242FE0C4EB04200A2105
:10308000B0FBF1F000F0FF094B4632460121374812
:1030900018F0F0FB09F07EFD6988A0EB010909EB4F
:1030A000D97008EB6000009009F060FD2988A0EB62
:1030B000010A0AEBDA7007EB600B59462846009AC2
:1030C00002F010F8002001F08BFD28B101F03CFD6A
:1030D0004FF0FF30BDE8F88F641E002CCDD1761C78
:1030E000032EC8D34FF47A7001F07AFD20B101F0BD
:1030F0002BFD4FF0FF30EDE7002633E00A242EE0F1
:10310000C4EB04200A21B0FBF1F000F0FF094B46AC
:1031100032460121164818F0ADFB09F03BFD6988E5
:10312000A0EB010909EBD97008EB600B09F01EFD5B
:103130002988A0EB010A0AEBDA7007EB60005A4617
:1031400001460090284601F0CDFF5A2001F048FDCD
:1031500020B101F0F9FC4FF0FF30BBE7641E002CFA
:10316000CED1761C022EC9D30020B3E7AC8E0B085B
:10317000BC8E0B082DE9F84F05460F4690460026F9
:1031800034E00A242FE0C4EB04200A21B0FBF1F064
:1031900000F0FF094B4632460121374818F06AFB20
:1031A00009F0F8FC6988A0EB010909EBD97008EB7C
:1031B0006000009009F0DAFC2988A0EB010A0AEB14
:1031C000DA7007EB600B59462846009A01F08AFF37
:1031D000002001F005FD28B101F0B6FC4FF0FF30F2
:1031E000BDE8F88F641E002CCDD1761C032EC8D309
:1031F0004FF47A7001F0F4FC20B101F0A5FC4FF01F
:10320000FF30EDE7002633E00A242EE0C4EB042073
:103210000A21B0FBF1F000F0FF094B4632460121D4
:10322000164818F027FB09F0B5FC6988A0EB0109E6
:1032300009EBD97008EB600B09F098FC2988A0EB2A
:10324000010A0AEBDA7007EB60005A46014600906B
:10325000284601F047FF5A2001F0C2FC20B101F0DE
:1032600073FC4FF0FF30BBE7641E002CCED1761C00
:10327000022EC9D30020B3E7AC8E0B08BC8E0B081E
:103280002DE9F84F05460F469046002634E00A2403
:103290002FE0C4EB04200A21B0FBF1F000F0FF099D
:1032A0004B4632460121374818F0E4FA09F072FC27
:1032B0006988A0EB010909EBD97008EB6000009068
:1032C00009F054FC2988A0EB010A0AEBDA7007EB3D
:1032D000600B59462846009A01F004FF002001F0D7
:1032E0007FFC28B101F030FC4FF0FF30BDE8F88FD3
:1032F000641E002CCDD1761C032EC8D34FF47A70F7
:1033000001F06EFC20B101F01FFC4FF0FF30EDE743
:10331000002633E00A242EE0C4EB04200A21B0FB8F
:10332000F1F000F0FF094B4632460121164818F033
:10333000A1FA09F02FFC6988A0EB010909EBD9700B
:1033400008EB600B09F012FC2988A0EB010A0AEBDC
:10335000DA7007EB60005A4601460090284601F0FB
:10336000C1FE5A2001F03CFC20B101F0EDFB4FF012
:10337000FF30BBE7641E002CCED1761C022EC9D3D1
:103380000020B3E7EC8E0B08FC8E0B082DE9F84FFC
:1033900005460F469046002634E00A242FE0C4EB91
:1033A00004200A21B0FBF1F000F0FF094B46324641
:1033B0000121374818F05EFA09F0ECFB6988A0EBB0
:1033C000010909EBD97008EB6000009009F0CEFB11
:1033D0002988A0EB010A0AEBDA7007EB600B59466B
:1033E0002846009A01F07EFE002001F0F9FB28B18A
:1033F00001F0AAFB4FF0FF30BDE8F88F641E002CEF
:10340000CDD1761C032EC8D34FF47A7001F0E8FBBF
:1034100020B101F099FB4FF0FF30EDE7002633E0DB
:103420000A242EE0C4EB04200A21B0FBF1F000F0E6
:10343000FF094B4632460121164818F01BFA09F0E5
:10344000A9FB6988A0EB010909EBD97008EB600BB7
:1034500009F08CFB2988A0EB010A0AEBDA7007EB74
:1034600060005A4601460090284601F03BFE5A2073
:1034700001F0B6FB20B101F067FB4FF0FF30BBE776
:10348000641E002CCED1761C022EC9D30020B3E7D7
:10349000EC8E0B08FC8E0B082DE9F84F05460F4605
:1034A0009046002634E00A242FE0C4EB04200A21D1
:1034B000B0FBF1F000F0FF094B46324601213748DE
:1034C00018F0D8F909F066FB6988A0EB010909EB4F
:1034D000D97008EB6000009009F048FB2988A0EB48
:1034E000010A0AEBDA7007EB600B59462846009A8E
:1034F00001F0F8FD002001F073FB28B101F024FB7E
:103500004FF0FF30BDE8F88F641E002CCDD1761C43
:10351000032EC8D34FF47A7001F062FB20B101F0A2
:1035200013FB4FF0FF30EDE7002633E00A242EE0D6
:10353000C4EB04200A21B0FBF1F000F0FF094B4678
:1035400032460121164818F095F909F023FB6988E5
:10355000A0EB010909EBD97008EB600B09F006FB41
:103560002988A0EB010A0AEBDA7007EB60005A46E3
:1035700001460090284601F0B5FD5A2001F030FBCD
:1035800020B101F0E1FA4FF0FF30BBE7641E002CE0
:10359000CED1761C022EC9D30020B3E78C8E0B0847
:1035A0009C8E0B082DE9F84F05460F4690460026E5
:1035B00034E00A242FE0C4EB04200A21B0FBF1F030
:1035C00000F0FF094B4632460121334818F052F90A
:1035D00009F0E0FA6988A0EB010909EBD97008EB62
:1035E0006000009009F0C2FA2988A0EB010A0AEBFA
:1035F000DA7007EB600B59462846009A01F072FD1D
:10360000002001F0EDFA28B101F09EFA4FF0FF30F2
:10361000BDE8F88F641E002CCDD1761C032EC8D3D4
:1036200001F050FF002633E00A242EE0C4EB042012
:103630000A21B0FBF1F000F0FF094B4632460121B0
:10364000164818F017F909F0A5FA6988A0EB0109E6
:1036500009EBD97008EB600B09F088FA2988A0EB18
:10366000010A0AEBDA7007EB60005A460146009047
:10367000284601F037FD5A2001F0B2FA20B101F0DE
:1036800063FA4FF0FF30C3E7641E002CCED1761CE6
:10369000022EC9D30020BBE78C8E0B089C8E0B0832
:1036A00010B504460A280FD00D2C11D00948006827
:1036B000C06901682046884707480168002907D08B
:1036C0002046BDE810400847BDE8104001F01EBC90
:1036D00010BD0000E4090020240A00202DE9FF5F4E
:1036E0008346DDE90E45984691468A464FF0FF36FF
:1036F00001274FF4B47004F5B47405F5B47503E014
:10370000A4F5B474A5F5B4758442F9DA002D65DD2D
:103710005A2C11DA002C00DA00245A2D01DA28463E
:1037200000E05A20CDE90040CDE9027643464A4602
:103730005146584614F068F85A3C5A3D002D4DDD6C
:103740005A2C14DA002C00DA00245A2D01DA28460B
:1037500000E05A20C4F15A01C0F15A008DE843003C
:1037600043464A4651465846039614F04DF85A3C93
:103770005A3D002D32DD5A2C12DA002C00DA0024DA
:103780005A2D01DA284600E05A200DF1040C00946D
:103790008CE8C10043464A465146584614F034F876
:1037A0005A3C5A3D002D19DD5A2C14DA002C00DA4F
:1037B00000245A2D01DA284600E05A20C4F15A01AB
:1037C000C0F15A008DE8830043464A4651465846A8
:1037D000039714F019F85A3C5A3D97E7BDE8FF9F4C
:1037E0002DE9F0430446C56887B09046894600201D
:1037F00002F0B6FD064625B1287910B146F0020068
:1038000001E026F0020002F0ABFD2069012558B16D
:10381000D4E902128DE826000395638822880468A3
:1038200041464846A0471EE0124F134B21463868D8
:103830001B68427CE068984730B9E088012801D0D5
:10384000002001E03868806BA288E388A1680095B9
:10385000CDE90410CDE90232019563882288414602
:10386000484608F01FFF07B03046BDE8F04302F0BD
:1038700077BD0000E4090020D40900202DE9FF4FA6
:1038800095B00020DDF890B00B90109013907D481B
:103890000A460068B0F90A100A91B0F90E000890C3
:1038A0001598B0F8009040880C902398002801DA11
:1038B000C0F100000F9004DAA9EB03030F98A3F105
:1038C000010303FB00F34FF47A7193FBF1F0A2EBD9
:1038D000000016902298C0F1000000FB0BF004F0ED
:1038E00049F91799BBF1000F00EB010808F101003D
:1038F0000E9002DA4FF0FF3000E00120069015989C
:10390000C06818B1007908B1012010900020A7E02C
:1039100022984446AAEB0000401C00FB0BF04FF439
:103920007A7104F027F9179900EB01080E98844288
:103930007ED00E940A98844279DB0898844276DC23
:1039400000254FF0FF300D952E462F46129062E075
:103950000F980644B6F57A7F5CDB2398002801DDDA
:10396000394602E0A9EB0701491E5246159801F0BD
:103970001FFE01900B99884202D11298401C42D13F
:10398000019870B9109860B10D98D0B3169812993B
:10399000421908442146521E08F086FF00200D906F
:1039A0002FE00D9850B11298401C07D0169812992C
:1039B000421908442146521E08F076FF0120129554
:1039C0000D901598006918B141680198884707E083
:1039D0001598C06868B3806858B3019950F8210001
:1039E0000790000E139002F07BFC26480068417C93
:1039F000254850F82100006901680798884709F0B8
:103A000079FD01980B904FF47A706D1CA6F57A76CB
:103A10008642FADA7F1C4F459ADB0D9838B116982A
:103A20001299421908442146521E08F03DFF01E058
:103A300014E008E00698BBF1000F04440BDA44459B
:103A40003FF778AF0AE00F480068417C0E4850F815
:103A500021000069B8E74445FFF66CAF0AF10100A8
:103A60000C9982468842FFF653AF1398002805D080
:103A700019B00020BDE8F04F02F032BC19B0BDE82B
:103A8000F08F0000E4090020100A00201CB500247B
:103A9000019401AC009400F0E7F81CBD2DE9FF4F44
:103AA00083B0814606988A46A0EB0A08109E002043
:103AB0000090A2EB09043568934654EA080018D038
:103AC0002046FDF701F907464046FDF7FDF887421D
:103AD0000BDA2046444680464846D1468246584640
:103AE000DDF818B0069001200090002C07DD20467C
:103AF00006E007B04846BDE8F04F00F03BB9604231
:103B0000A0420AD04846D9466442C8F1000883461C
:103B10004FF0FF37DDF818A000E001275148B8F159
:103B2000000F11D004EBD4714FEA610B01DACBF135
:103B3000000B4C480068807E88B3002F02DA3068A2
:103B40002044306000257BE000990029016821D0E5
:103B5000897E11B10027804615E007B05A464946D4
:103B60005046BDE8F04F08F0FFBE28466D1C17F028
:103B7000E1FD38B9D8F8000009EB0701406E426852
:103B8000504690477F1CA742EFDD6D1E356007B0A1
:103B9000BDE8F08F8A7E1AB10027804617E019E051
:103BA000486E5A465146036807B04846BDE8F04F94
:103BB000184728466D1C17F0BDFD38B9D8F800101D
:103BC00009EB0700496E4A68514690477F1CA7429F
:103BD000EFDDDAE700250FE008FB05B090FBF4F11C
:103BE00001EB0A00009951B11E4A09EB0501126868
:103BF000526E526890476D1CA542EDDDC7E719492A
:103C000009EB05030968496E4A6801461846F1E761
:103C100008FB05B090FBF4F101EB0A00019030685D
:103C20003844306017F086FD48B9009890B10D48CF
:103C300009EB05010068406E4268019890476D1CD1
:103C4000A542E5DD3068002F01DA20443060C01B5A
:103C500030609CE7034909EB05000968496E4A6832
:103C60000199EBE7E40900202DE9FF470F464049A1
:103C70001646804609680C981D460A7E012A1CD00B
:103C8000A8EB0600791B50EA01031CD0A2F1010940
:103C900018F03EFE00F58060824604F0D2FB00FB87
:103CA00009F4504604F0D2FB00FB09F1002C0CDAB9
:103CB000C4F50070801240420AE000903246394656
:103CC0004046FFF7EBFEBDE8FF8704F50074A01245
:103CD000002904DAC1F5007189124C4202E001F5B5
:103CE00000718C12002804DD411C01EBD1714910D8
:103CF00003E000EBD0714910401E00EBD070421081
:103D0000002C04DD601C00EBD070401003E004EBDD
:103D1000D4704010641E04EBD47308EB0104ADF8BA
:103D200000403C18ADF80240A8EB02045B10B21A48
:103D3000ADF80440ADF808203144FC1AEA1AADF899
:103D40000C102844ADF80A20ADF80E000023ADF8A1
:103D500006401A460421684600F0A0F8394640465D
:103D600015F0EEFC2946304615F0EAFCABE7000002
:103D7000E4090020064A13681A7E012A05D0521E63
:103D800002EBD272521000F005B85A6E526810471A
:103D9000E40900202DE9F05F0646884640F2C32082
:103DA00002FB00F14FF47A7091FBF0F702FB02F195
:103DB00002EBD27001EB600B1446B118234A301BA2
:103DC0007F1C1268526E13680A46414698470125C7
:103DD00038E000BF05FB05F004FB040159451CDD7C
:103DE000BC4219DD194B06EB050AA6EB05091B6859
:103DF000AAF1010208EB04015B6E09F101001B68E6
:103E00009847124BAAF10102A8EB04011B6809F1C3
:103E100001005B6E1B689847641E0C4B3219301B07
:103E20001B68924608EB05015B6E81461B6898474C
:103E3000064B5246A8EB05011B6848465B6E1B68A3
:103E400098476D1CBD42C5DDBDE8F09FE409002028
:103E500070B514460E4605460119001B00F0DCFC47
:103E600022463146284615F043FEBDE8704000F07A
:103E7000EDBB2DE9F04114460F46054601191E46DB
:103E8000001B00F0C9FC334622463946284615F08F
:103E900089FEBDE8F04100F0D9BB00002DE9FF4FDD
:103EA00043F6FF740F46664283B09B46814600216D
:103EB0000BE000BF09EB8100B0F90200A04200DA7C
:103EC0000446B04200DD0646491CB942F2DB6748B1
:103ED0000068406900280DD0B0F906101A46A1EB21
:103EE0000B01B14200DA0E46B0F90200801AA0427E
:103EF00000DD0446B4E0DFF878A100200546CAF8EA
:103F0000000088E0781E854201DA6B1C00E0002387
:103F100009EB850C09EB8302BCF90200B2F902102F
:103F2000A04244D1A14215D139F92330059A39F97B
:103F3000251003EB020C4D4A05981268084404EB67
:103F40000B01526E6045136801DA62462AE00246B0
:103F5000604627E02846A4464FF000087A1E0BE092
:103F600008B1401E00E0781E09EB8003B3F902306F
:103F7000634504D108F101089045F1DB2346A342D3
:103F800048D01A1B39F92500A1EB040C059B92EAD5
:103F90000C0F09D4354A184404EB0B011268526E19
:103FA00013680246984735E012F0CEFD32E0A14298
:103FB00030D001DBA04203DDA0422BDBA14229DC93
:103FC000E04688420ADC0346A04223DC0846A142C0
:103FD00020DBB8F900C0B2F9001008E00B46A1429E
:103FE00018DCA04216DBB2F900C0B8F90010E21AE2
:103FF000A1EB0C0151430029A0EB030202DD01EB10
:10400000620102E0A1EB6201491CC01A91FBF0F0D1
:104010006044C9E76D1CBD42FFF674AF059800907F
:1040200004EB0B00019000208046054613E0114987
:10403000B8F1000F31F915A009D0009901EB0A027F
:1040400008440A490968496E0B680199984788F045
:10405000010850466D1C064909688D42E7DB641C67
:10406000B4427FF748AF07B0BDE8F08FE409002005
:10407000D40B0020DC7F01200E4810B5006809F049
:10408000FBF90D48006809F02FFA012002F0BEF993
:10409000002002F0C3F9002002F0CAF9002009F064
:1040A00051FA0648006802F05DF9BDE810400020B2
:1040B00002F080B9E0090020DC090020D8090020C6
:1040C000014AC2E90001704788090020014AC2E99B
:1040D0000001704790090020014AC2E900017047C1
:1040E000740A0020014AC2E90001704798090020C3
:1040F000014AC2E9000170477C0A0020F0B501F0D6
:104100007F4CBCF17F4F35D000F0FF0C0CFB02F46C
:1041100000F47F4C0CFB02F500F47F0C0CFB02F664
:104120004FEA106C0CFB02F7C2F1FF0301F0FF0C29
:104130000CFB034401F47F4C0CFB035501F47F0C92
:104140000CFB03664FEA116C0CFB0377C4F30724E6
:104150004FF47F4C0CEA15254FF47F0C0CEA162621
:104160004FF07F4C0CEA074744EA050C4CEA060C7A
:104170004CEA0700F0BD00002DE9F04FDFF828B150
:1041800091B04FF0FF35DBF80030B3F92210069103
:10419000DE69B3F92490F469A189814206D8E289E5
:1041A000824203D3471AD4F8008012E0D4E9018197
:1041B00000296FD00A8882426CD84D88854269D325
:1041C000801A82B2486800EB8200B0F90070B0F942
:1041D0000250781C5ED0307EA17C10FB01FA217C5D
:1041E000CDE90701B3F92A60304609F0ABF9C0B256
:1041F0000E90DBF8000007FB0A81A37C826B01278D
:10420000CDE90412CDE90273C069089AC17E807EAF
:10421000CDE90001DDE90603494608F043FA681CD0
:1042200018D046F0020009F08DF9DBF80000A37CFD
:1042300005FB0A81826BCDE90273CDE90412C069E6
:10424000089AC17E807ECDE90001DDE9060349467A
:1042500008F028FADBF800005D46C069417E007E68
:10426000814214D9022E12D086F0040009F06AF9B6
:104270002868C069027EC37E12FB0391437E857E5F
:10428000089A06984B4412FB050208F097FB0E981B
:1042900009F058F9DBF80000627C418C114441843C
:1042A00011B0BDE8F08F0000E40900200448006868
:1042B000C069C06909B1027C0A60407C7047000097
:1042C000E4090020022008807047C06982898A4280
:1042D00002D8C2898A4210D2806880B102888A429C
:1042E0000DD843888B420AD3406800EB8100A0EBD5
:1042F0008200B0F90000002801DB01207047002097
:1043000070470000F0B5254C054687B02068294667
:10431000B0F92A60C069C06900F04BF900283AD0B2
:1043200041680088281A01EBC0053046AF7809F0D3
:1043300009F906461A48D0F800C0BCF1000F15D0A4
:1043400000216868CDE904010422012001A9009040
:1043500081E885002068DCF800702A78C1690B7E4E
:10436000B0F92410B0F92200B8470CE06868CDE934
:10437000007020682A78C1690B7EB0F92410B0F96A
:10438000220000F055FA304609F0DCF820686A781F
:10439000418C1144418407B0F0BD0000E4090020C5
:1043A0003C0A002070B505460B480C4629460068BB
:1043B000C069C06900F0FDF800280BD04168008892
:1043C0002A1A012000EBC200002C085C02D011F870
:1043D0003210216070BD0000E40900201120088027
:1043E000704710B5C06900F0E4F8002800D0012043
:1043F00010BD00002DE9F043304C034687B0206823
:104400001946B0F92A60C069C06900F0D2F80028E6
:1044100050D041680088181A01EBC0053046AF78CB
:1044200009F090F8814620686A680123816BCDE924
:104430000237CDE90421C169CB7E8A7ECDE9002314
:104440000B7EB0F924102A78B0F9220008F02AF97E
:104450002068C069417E027E91421FD9C07E11FB57
:1044600000F812FB00F7022E18D001F013F90646EF
:1044700001F0F8F801F072FF21682A78CB69B1F9F0
:104480002200DB7E12FB0302B1F9241001EB0803CA
:10449000394408F093FA304601F060FF484609F0CD
:1044A00051F820686A78C369B0F922109B7E12FB2C
:1044B0000311418407B0BDE8F0830000E409002047
:1044C0002DE9F3411C4E0F46002530682C46C0698B
:1044D000417EC07E11FB00F81DE0684603F01AF82B
:1044E000054630682946C069C06900F029F890B1D6
:1044F00041680088281A00EB400001EB800090F929
:104500000210007908443168C969897E10FB01F006
:10451000002800DD04447F1EDFD51DB1284603F0CE
:10452000D9FD04444146204612F036FC03490120DF
:104530000870BDE8FC810000E4090020740B002035
:1045400006E002888A4202D842888A4202D2806803
:104550000028F6D17047000030B50F4C05460B46D9
:1045600020682946C069C06900F023F8002812D0ED
:104570004168008824682A1A0120E46900EBC2001F
:10458000085CA47E10FB04F0002B04D011F832105C
:1045900011FB04F1196030BDE409002001200880FE
:1045A000704700B5C06900F004F8002800D0012071
:1045B00000BD06E002888A4202D842888A4202D2BE
:1045C00080680028F6D170472DE9FC479846DDE960
:1045D0000A7691460C46054611F0B2FE054411F0EC
:1045E000BDFE0444002011F0E5FE09E0CDE90076AF
:1045F00043464A462146284613F06AFA11F080FEE7
:104600000028F3D1BDE8FC872DE9F0411C46154692
:104610000E46074611F094FE074411F09FFE064433
:1046200011F08EFE054411F099FE0444002011F0B3
:10463000C1FE07E023462A463146384612F022FAE8
:1046400011F05EFE0028F5D1BDE8F08110B515F03F
:10465000F7FD0448016A04480068416600F108015A
:10466000416110BD140B0020E40900207CB5144604
:104670000D46064611F064FE064411F06FFE054437
:104680001548006890F8691021B990F868104E43F9
:104690004D434C43301B00F05FF8ADF8000030197B
:1046A00000F05AF8ADF80400281B00F055F8ADF8FA
:1046B0000200281900F050F8ADF80600684611F025
:1046C00079FE06E0224629463046FFF7C1FB11F08D
:1046D00017FE0028F6D17CBDE40900202DE9FC413D
:1046E0001E4617460C46054611F02AFE054411F0F9
:1046F00035FE04441748006890F8691029B990F80D
:1047000068004543444347434643E81B00F024F810
:10471000ADF80000E81900F01FF8ADF80400A01B88
:1047200000F01AF8ADF80200A01900F015F8ADF885
:104730000600684611F03EFE07E033463A46214641
:104740002846FFF796FB11F0DBFD0028F5D1BDE808
:10475000FC810000E40900200449096891F8681010
:1047600009B190FBF1F000B270470000E4090020AD
:104770002DE9F041224C05460E462068002788B9F5
:1047800020480068E06110B908F0EAF9E06100F043
:10479000ABF8206080B31A491B48243108600846F2
:1047A00003F0BAFD19480068854200DA0546E16960
:1047B000731B4A1E2046934201DD6E18761EAE42E0
:1047C00001DA2E460127124C2268516E4B68836332
:1047D00001620B490F4B34310B60516602C880E80F
:1047E000620012F0C1FA12F071FA054821682C300B
:1047F00048613846BDE8F081FFE70127D2E70000B5
:10480000140B00202C0A002095B10108300A00206A
:10481000E409002051950108044A126892F86820C2
:1048200090FBF2F091FBF2F1FFF7A2BFE409002048
:104830007CB5084EDDE906543668367CCDE9005477
:10484000B60702D414F0F0FD7CBD034C2468A047E9
:104850007CBD0000E409002058090020002801D098
:1048600012F0D8B97047000038B50546FFF7F6FFDB
:1048700004000AD000F0B0F8054B00902A461B68EF
:1048800000219847684600F0D7F8204638BD000060
:10489000680B0020024A106021F00300506070474E
:1048A000A87E012010B500280ED004460748042138
:1048B00001EBC401406B4158486812F063F920468F
:1048C000BDE8104016F052BD10BD0000E87D01208B
:1048D000002805D0034AD16B016001B14860D06364
:1048E00070470000E87D01202DE9F041044616F0F4
:1048F0002BFA2848E41C24F00305016C2D1DA94265
:1049000000D90D46C46B13E054F8042CAA420ED112
:1049100084B1216809B162684A60616809B122689E
:104920000A60C26BA24231D12168C1632EE02468C3
:10493000002CE9D18046816BC0680F1857F8040C31
:104940003E1A306838B1002016F0D0FD57F8040C3C
:104950003E1A3068D0B97068A84217DB3044441B57
:104960003046241D16F07AFDD8F80C10491BC8F803
:104970000C10D8F814102944C8F814107068401BA3
:1049800002D0314612F0FEF844F8045C2046BDE83F
:10499000F0810000E87D012010B5002416F0D4F964
:1049A0000C490F2001EBC002526C1AB101EBC000A0
:1049B000406C08E0401EF5D508E04168A14200D9EE
:1049C0000C46806810B180680028F6D1A4F10C0074
:1049D00010BD0000E87D01200549CA69521CCA616A
:1049E000496B01EBC0010A78521C0A7000F03CB818
:1049F000E87D012010B5FFF7CFFF64220649B0F52E
:104A0000800F04D990FBF2F0096A484310BD096A8F
:104A10004143B1FBF2F010BDE87D012005491028AB
:104A200005D94A68B0EB520F02D3500800E01020BD
:104A300088607047A87E01200A4902684B6B52F8D3
:104A4000082C03EBC2021378022B03D3CB690BB102
:104A50005B1ECB611178491E117000210160084670
:104A600070470000E87D01200349042202EBC000EA
:104A7000496B085808307047E87D012070B50C4636
:104A8000054600F0ADFEC1B223462846BDE87040A1
:104A9000002200F001B80000F0B52D271C68B0F12D
:104AA000004F08D0002600280DDA651C1D60277015
:104AB0004042012408E0651C01261D606FF00040A3
:104AC0002770491E01E00024091BC9B22AB3491E00
:104AD000C9B222E00C46491EC9B2944205D1124C1B
:104AE00027781C68651C1D602770104C54F82150F5
:104AF00090FBF5F4E4B20A2C11D804FB150011B9AF
:104B00000EB1641CE4B20A2C02D10124491CC9B2C2
:104B10001D686F1C30341F602C700029DAD11968B1
:104B200000200870F0BD0000D00900200CD80C084F
:104B300010B5002807DD0A682B24531C0B60147085
:104B4000096800220A7010BD10B5002001F07CF841
:104B50001548006800F05AFE00F08CF81348807980
:104B6000012806D10020114988710F2010490870D2
:104B700018E00E48C079012806D100200B49C87101
:104B800010200B4908700DE008484079012806D133
:104B90000020064948710E200549087002E00E20E9
:104BA0000349087010BD0000F4010020000000203F
:104BB000C474012070B5044600F098FD05462E1916
:104BC0000AE0642000F070F900F090FD0546FDF762
:104BD000D1FB08B1012070BDB542F2DB0020FAE73D
:104BE00070B5044600F082FD05462E190AE05A20F1
:104BF00000F05AF900F07AFD0546FDF7BBFB08B15D
:104C0000012070BDB542F2DB0020FAE770B5044622
:104C100000F06CFD05462E190AE0052000F044F96D
:104C200000F064FD0546FDF7A5FB08B1012070BD4D
:104C3000B542F2DB0020FAE710B5C2B2CBB2D21A0D
:104C400000D5524293B25B43C0F30722C1F307245D
:104C5000121B00D55242000C92B2A0EB114002FB95
:104C6000023200B2002801DA404200B280B200FBFA
:104C7000002010BD10B50021084600F061FD43F68C
:104C8000FF725042BDE8104013460146AFF300806A
:104C90002DE9FC4107461C4615460E46042008F047
:104CA00051FC804611484069C16C006D0F440644B8
:104CB0000D440444ADF80070ADF80450ADF8026046
:104CC000ADF80640684611F075FB07E023462A461A
:104CD0003146384607F072FE11F012FB0028F5D17C
:104CE000404608F02FFCBDE8FC810000D009002000
:104CF000B0F90630B0F90420B0F90210B0F90000A4
:104D0000FFF7C6BF0249496A002900D0084770472B
:104D1000D00900202DE9F0411C4616460D460746F5
:104D2000022B02DB0020BDE8F0811C20FFF7DCFD38
:104D30000028F8D00DB105610AE0094A52F82410A4
:104D400009B905E011460A68002AFBD10969016129
:104D500084618682002101604160C0E90217E2E7B8
:104D6000100A002070B51D46FFF7D4FF040009D0DB
:104D700000F00EF8E068006820B90348006800EB16
:104D800085008465204670BDE4090020FFF7A0BDC2
:104D900070B5C0B38269022A36DA2149531C0C78F7
:104DA0009C4200DA0B701F4C54F8221019B944F8D9
:104DB000220032E019464B68002BFBD106E0CB689D
:104DC000C5681B682D68AB4203DD09680029F6D170
:104DD0001AE0C1B1CB68C6681B683668B3420CD113
:104DE000838A012B05D008E01946DB681B68AB42BB
:104DF00003DB0B68002BF7D129B14B6833B1186086
:104E00004A68426004E0FFE7012070BD44F82200D8
:104E10004860884200D100210160002070BD000080
:104E2000360A0020100A002010B50C4B82690021C0
:104E300053F82240844205D1046843F822400268B6
:104E400002B1516042680AB10368136002680AB196
:104E5000436853600160416010BD0000100A0020EB
:104E6000022801DB00207047054A52F8200004E0C8
:104E7000C26812688A42F6D000680028F8D17047EC
:104E8000100A0020022801DB00207047054951F874
:104E9000200004E0C16809680029F6D000680028F5
:104EA000F8D17047100A002070B5044602F06BFC80
:104EB0000619084D08E000BF00F02EFB2868844268
:104EC00000DC204602F052FC02F05DFC341A002C9B
:104ED000F2DC70BD700A0020FCF7E0BF1FB503A92B
:104EE000CDF80CD0FFF7CAFD684600F033F81FBDBF
:104EF0001FB503ABCDF80CD0FFF7CEFD684600F030
:104F000029F81FBD002112F0A7BB000000B500F07A
:104F1000CFFB044909688A8C10448884088C488433
:104F200000BD0000E40900207FB50C461546CDF811
:104F30000CD003A9FFF7FCFD002801DD641EE4B2DC
:104F400003AB2A462146FFF7A7FD684600F002F8AA
:104F50007FBD00002DE9FC4706005BD000F0A8FBF8
:104F60003B4C81462068B0F9228000F0C1FB2168EB
:104F700007468A8CD01B888441E000BF47F6FF714A
:104F8000304603F07DF882460146304603F04EF885
:104F90002168054691F82C0000F0030001283FD05D
:104FA000022839D000204A8C101A4884ADF800003D
:104FB0006A1E1044ADF80400888CADF80200A9F117
:104FC00001010844ADF806006A465146304602F039
:104FD00079FD2168BDF8020088845146304602F010
:104FE000AFFA064430780A281CD00D281AD0BDF834
:104FF0000000216828444884307818B1761C307845
:105000000028BBD12068818C39448184818D21F0B6
:1050100003018185BDE8FC8705EBD5704010C2E730
:105020002846C0E7206890F82C1001F00301012900
:105030000BD0022909D0018C418431780A29DBD1B7
:10504000828C02EB09018184D6E7A0F82280F4E784
:10505000E4090020024B1B6859849A84FFF77ABF49
:10506000E40900202DE9F04107460A4815460E469E
:105070000068B0F92C0040F0020001F0CFF90446BE
:105080002A4631463846FFF7E5FF2046BDE8F041A5
:1050900001F0C4B9E40900202DE9F04706460C46AA
:1050A00015466FF07F4001F059F90D4801F05AF9AB
:1050B00007F070FD074600EBD7704010193800EB81
:1050C000050907F053FD804600EBD87004EB600A39
:1050D0004A4651463046FFF7C5FF0020BDE8F0873D
:1050E00048D70C087CB5064610480068C36C006DB4
:1050F0005D1884183188681E0844ADF80400ADF8C6
:1051000000507188601E0844ADF80600ADF80240FA
:10511000684611F04FF906E0224629463046FEF770
:105120005FFB11F0EDF80028F6D17CBDE40900200A
:105130002DE9F04F87B09A46DDE9117693460C468B
:105140008146DDF8408007F071FC05903948006821
:10515000C16C0D19016DCAF1000001EB0B0478431D
:105160004FF47A7B002F594611DB02F003FD2844EF
:10517000ADF80C00B9F80010A1EB0A00401E78430E
:10518000594602F0F7FC2844ADF8100010E002F098
:10519000F1FC2844ADF81000B9F80010A1EB0A00AA
:1051A000401E7843594602F0E5FC2844ADF80C0057
:1051B000C8F100007043002E594611DB02F0DAFC02
:1051C0002044ADF80E00B9F80210A1EB0800401E13
:1051D0007043594602F0CEFC2044ADF8120010E0B6
:1051E00002F0C8FC2044ADF81200B9F80210A1EB9F
:1051F0000800401E7043594602F0BCFC2044ADF844
:105200000E0003A811F0D6F80BE0CDF80080CDE930
:1052100001765346224629464846FEF72FFB11F0F9
:105220006FF80028F1D1059808F064F907B0BDE8DF
:10523000F08F0000E40900202DE9F04F8BB0044608
:1052400004250A200A904FF4967009904FF487764F
:1052500004F26D10089000274FF000084FF000098D
:105260004FF0280A4FF0000B0020079004F1F000E7
:10527000069082200590B42004900020039008201E
:1052800001F0C4F86FF07F4001F068F80DE004F51C
:10529000CD7319464FF49670099AFFF7B5F909983E
:1052A000284409900A20FFF7FFFD0998B0F5FA7F1E
:1052B000EDDD0FE04FF487702D231A4604F26D11D7
:1052C000CDE900064FF4FA70FFF77EF9761D0A204B
:1052D000FFF7EAFDB6F5B47FECDD12E004F26D13E2
:1052E00040F2212210460899FFF78EF903982844CE
:1052F000039004F26D100399401A08900A20FFF7FA
:10530000D3FD04F1F00108988842E7DA1CE009F1C6
:1053100005094FF4B470411F50231A46CDE900101F
:1053200004F1F0014FF4E970FFF74EF9002050232B
:105330001A4604F1F001CDE900094FF4E970FFF7D6
:1053400043F90F20FFF7B0FDB9F1280FDFDD0FE0C3
:105350002F44A84404F1BA02A2EB080140F20D2246
:10536000D01B04F1BA03FFF74FF91620FFF79CFD9D
:1053700040F20D20C01BB0F5D77F06DB04F1BA0068
:10538000A0EB080160388142E2DA0EE0AA442D2049
:1053900028231A4604F17501CDE9000A4FF4C870BC
:1053A000FFF712F90A20FFF77FFDBAF1870FEDDD55
:1053B00011E004F15A02079BD118CBF5B9701346DE
:1053C0004FF4B972FFF720F91620FFF76DFDAB44DB
:1053D000079828440790CBF5B970B0F5897F06DDB2
:1053E00004F15A000799014460308142E1DD11E087
:1053F0008721059850231A46CDE9001004F1EE01EB
:1054000040F24F10FFF7E0F80598284405900C2073
:10541000FFF74AFD0598B228EADD0CE004F1E90146
:10542000FF221046069BFFF7EFF8069828440690E7
:105430000A20FFF739FD04F26D1106988842EDDD70
:1054400011E0049828440490AA2104982D231A46B8
:10545000CDE9001004F26D114FF49670FFF7B4F827
:105460000A20FFF721FD0498B0F5877FE9DD0020D1
:105470000BB0BDE8F08F00002DE9F0410446FFF7C6
:10548000F9FB0F48006800F0DFFB07F083FB618841
:10549000451A05EBD5704010A0F13C0707F066FBFC
:1054A0002188461A06EBD67041103A462046FFF78F
:1054B00019FE0348006800F0C7F90020BDE8F0813C
:1054C000F401002010B5002400BF02E012F07AF8C9
:1054D000641C0A2CFADB00200E490860002402E05C
:1054E00012F02CF8641C0A2CFADB002402E012F003
:1054F0003FF8641C0A2CFADB0020064908600024EF
:1055000002E011F0F1FF641C0A2CFADB00200149D3
:10551000086010BD0002002010B5002400E0012446
:1055200000F004F80028FAD1204610BD0B4810B551
:105530000068002410B1804700B1012410F0C0FBC6
:1055400000B101240648006810B1804700B1012471
:105550000448006800B18047204610BDF0090020D3
:105560001C0A0020180A00202DE9FC410F4C256878
:10557000EC6C2718286DA5184618C418ADF80070F3
:10558000ADF80450ADF80260ADF80640684610F082
:1055900011FF07E023462A463146384607F00EFA47
:1055A00010F0AEFE0028F5D1BDE8FC81E409002032
:1055B00008B50B46002805D0009281888268C08813
:1055C00000F001F808BD10B50828029C30D008DCB6
:1055D00004FB01F401280AD0022813D0042804D1C6
:1055E0001CE0102828D020282CD0002010BD04EB6F
:1055F000D30003F00701105CC1F10701C84000F0BF
:10560000010010BD04EB93000621105C01EA430188
:10561000C1F10601C84000F0030010BD04EB5300C7
:10562000D907105C02D000F00F0010BD000910BDBA
:1056300004FB0130105C10BD481004FB003032F850
:10564000100010BD881004FB003052F8200010BD7F
:10565000034951F82000C1688A6A082110470000F8
:10566000100A002010B507F0D9F9BDE8104007F086
:10567000FDBB000002490968C9694A68002110475A
:10568000E4090020024A1268D269526810470000FB
:10569000E409002010B507F0C9F9BDE8104007F093
:1056A000E5BB000001480068007C7047E409002069
:1056B00002480068C069407E70470000E40900208D
:1056C00002F0AABC70B514460D4607F02DFA00286A
:1056D00002D000212960216070BD02F0EDBC000005
:1056E00001480068007E7047E409002002F04BB8D2
:1056F0000A490020096891F82C2002F00C02042AC3
:1057000007D0082A01D00C2A02D1C869007E4008BF
:105710007047C869007E401E70470000E409002001
:10572000024951F82000006900687047100A002003
:10573000024951F82000006940687047100A0020B3
:10574000024A12685084918400207047E4090020C6
:105750002DE9F0411C48016821F0010101601B485E
:105760000126866081680029FCD119490160006822
:105770001849884200D0FEE702F0D0F8164C2E20DF
:10578000207002F007F8154815F0A8FA18F01CFE72
:10579000074607F0F3F910B107F004FA38B907F03B
:1057A0000AFA054607F0F3F9294607F0C5FE00217D
:1057B000084600F007FE10F0E9FAA06900B1804742
:1057C000A6703846BDE8F081002000E000300240BD
:1057D000C2A507F4CDB5E8B5D0090020B47E0120FC
:1057E00010B5011E01DD024600E04A42064B0120D1
:1057F00053F82040944202D8401C0A28F8DB0029C4
:1058000000DA401C10BD00000CD80C081CB520B9F3
:105810000C480068006E002812D0FFF7DDF80090F9
:1058200044696846FFF708F9002C09D02046FFF7C5
:10583000D3F8019081688968884701A8FFF7FCF8D0
:105840001CBD0000E409002001490A4600F002B82E
:1058500001F0FFFF2DE9F04387B015460C465FEAE3
:10586000000842D0002000F07BFD814620480068FF
:10587000066E4046FFF7B0F800900068806900F0BF
:1058800017FD074640F6FF70C44204D10098B0F9F6
:105890000440B0F906500098611E0289ADF804403A
:1058A0001144ADF808104189681E0844ADF806504F
:1058B000ADF80A0010F066F86846FFF7BDF801A8D9
:1058C00010F078FD06E02A462146404600F0E8FA4E
:1058D00010F016FD0028F6D1384600F0E9FC3046FD
:1058E00000F0B2F9484600F03BFD07B0BDE8F08398
:1058F000E40900202DE9FE4F83461A488A461A49DA
:1059000000680C9E9846407C9146002751F8204044
:10591000E1680968042903D02468002CF8D100E06C
:105920001CB9FFF7AFFA041E19D0E0680121C26A62
:1059300020469047050011D02469A0688047401C8C
:1059400002D10A4C46F001060096CDE901544346C7
:105950004A465146584600F0FBF907463846BDE82E
:10596000FE8F0000E4090020100A0020E4DE0C088D
:10597000FEB50546DDE909640020089F002C05D02E
:105980000097CDE90164284600F0E2F9FEBD000071
:1059900038B5040018D00D480068006EA04201D14F
:1059A00000F07CFC2046FFF717F80090406908B132
:1059B00001F0BDFE00980068FFF7E8F96846FFF7C0
:1059C0003BF82046FEF76EFF38BD0000E4090020DA
:1059D0002DE9FF4FDFF83891074683B0D9F8000072
:1059E0009A468B46447C4B4800570128204606DDEA
:1059F00007F0CAF80546204607F0DAF805E007F098
:105A0000ACF80546204607F0AEF804461FB302A9DD
:105A100001A8FFF762FEB7F90000002800DA0020B5
:105A2000B7F902608046002E00DA0026019841197D
:105A3000B7F90400491E15F097FA054602980119B6
:105A4000B7F90600491E15F08FFAA5EB0802841B72
:105A5000521C641C03E04FF0000846462A46BAF187
:105A6000000F01D1C4F1000A002A4FDD002C4DDDEA
:105A700010980090534631464046FFF73BFF5FEADF
:105A8000000A10D000F0A6F80746A04206D0D9F8C8
:105A90000000806C10B1322110F060FF504600F021
:105AA000D3F8002521E0594605988847012007B022
:105AB000BDE8F08F611BB94202DA504600F0AEF843
:105AC0003DB172194146504600F0E0F85046FFF7EC
:105AD0009DFE5946059888470F48016809B1002086
